{
  "contractName": "SimpleStorage",
  "abi": [
    {
      "inputs": [
        {
          "internalType": "uint256",
          "name": "_Number",
          "type": "uint256"
        }
      ],
      "name": "saveNumber",
      "outputs": [],
      "stateMutability": "nonpayable",
      "type": "function"
    },
    {
      "inputs": [],
      "name": "deleteNumber",
      "outputs": [],
      "stateMutability": "nonpayable",
      "type": "function"
    },
    {
      "inputs": [],
      "name": "getNumber",
      "outputs": [
        {
          "internalType": "uint256",
          "name": "",
          "type": "uint256"
        }
      ],
      "stateMutability": "view",
      "type": "function",
      "constant": true
    }
  ],
  "bytecode": "0x608060405234801561001057600080fd5b5060be8061001f6000396000f3fe6080604052348015600f57600080fd5b5060043610603c5760003560e01c8063edbd8f9f146041578063f2c9ecd814604b578063f33ded7b146060575b600080fd5b604960008055565b005b60005460405190815260200160405180910390f35b6049606b3660046070565b600055565b600060208284031215608157600080fd5b503591905056fea2646970667358221220b9136bbb604e26cf8435d9122e84211bfadb4f1623eafba06b4c7d4b02a9e81564736f6c634300080d0033",
  "immutableReferences": {},
  "source": "// SPDX-License-Identifier: MIT\n\npragma solidity ^0.8.0;\n\ncontract SimpleStorage {\n\n    uint favoriteNumber;\n\n    function saveNumber(uint _Number) public {\n        favoriteNumber = _Number;\n    }\n\n\n    function deleteNumber() public {\n        favoriteNumber = 0;\n    }\n\n\n    function getNumber() public view returns(uint) {\n        return favoriteNumber;\n    }\n}",
  "sourcePath": "C:\\securebank\\contract\\contracts\\SimpleStorage.sol",
  "compiler": {
    "name": "solc",
    "version": "0.8.13+commit.abaa5c0e.Emscripten.clang"
  },
  "schemaVersion": "3.4.16",
  "updatedAt": "2024-03-24T09:07:47.495Z",
  "networkType": "ethereum",
  "devdoc": {
    "kind": "dev",
    "methods": {},
    "version": 1
  },
  "userdoc": {
    "kind": "user",
    "methods": {},
    "version": 1
  }
}