{
  "contractName": "TransactionContract",
  "abi": [
    {
      "anonymous": false,
      "inputs": [
        {
          "indexed": false,
          "internalType": "uint256",
          "name": "transactionId",
          "type": "uint256"
        }
      ],
      "name": "TransactionAdded",
      "type": "event"
    },
    {
      "inputs": [],
      "name": "transactionCount",
      "outputs": [
        {
          "internalType": "uint256",
          "name": "",
          "type": "uint256"
        }
      ],
      "stateMutability": "view",
      "type": "function",
      "constant": true
    },
    {
      "inputs": [
        {
          "internalType": "string",
          "name": "_transactionType",
          "type": "string"
        },
        {
          "internalType": "uint256",
          "name": "_amount",
          "type": "uint256"
        },
        {
          "internalType": "string",
          "name": "_recipientAccountNumber",
          "type": "string"
        },
        {
          "internalType": "string",
          "name": "_timestamp",
          "type": "string"
        },
        {
          "internalType": "string",
          "name": "_senderId",
          "type": "string"
        }
      ],
      "name": "addTransaction",
      "outputs": [],
      "stateMutability": "nonpayable",
      "type": "function"
    },
    {
      "inputs": [
        {
          "internalType": "uint256",
          "name": "_transactionId",
          "type": "uint256"
        }
      ],
      "name": "getTransactionDetails",
      "outputs": [
        {
          "components": [
            {
              "internalType": "string",
              "name": "transactionType",
              "type": "string"
            },
            {
              "internalType": "uint256",
              "name": "amount",
              "type": "uint256"
            },
            {
              "internalType": "string",
              "name": "recipientAccountNumber",
              "type": "string"
            },
            {
              "internalType": "string",
              "name": "timestamp",
              "type": "string"
            },
            {
              "internalType": "string",
              "name": "senderId",
              "type": "string"
            }
          ],
          "internalType": "struct TransactionContract.Transaction",
          "name": "",
          "type": "tuple"
        }
      ],
      "stateMutability": "view",
      "type": "function",
      "constant": true
    }
  ],
  "bytecode": "0x608060405234801561001057600080fd5b5061080d806100206000396000f3fe608060405234801561001057600080fd5b50600436106100415760003560e01c80630fa683d314610046578063ad49d2e51461006f578063b77bf60014610084575b600080fd5b61005961005436600461052e565b61009b565b6040516100669190610594565b60405180910390f35b61008261007d3660046106bf565b610398565b005b61008d60015481565b604051908152602001610066565b6100cd6040518060a0016040528060608152602001600081526020016060815260200160608152602001606081525090565b6000821180156100df57506001548211155b6101275760405162461bcd60e51b8152602060048201526015602482015274125b9d985b1a59081d1c985b9cd858dd1a5bdb9259605a1b604482015260640160405180910390fd5b60008281526020819052604090819020815160a0810190925280548290829061014f90610776565b80601f016020809104026020016040519081016040528092919081815260200182805461017b90610776565b80156101c85780601f1061019d576101008083540402835291602001916101c8565b820191906000526020600020905b8154815290600101906020018083116101ab57829003601f168201915b50505050508152602001600182015481526020016002820180546101eb90610776565b80601f016020809104026020016040519081016040528092919081815260200182805461021790610776565b80156102645780601f1061023957610100808354040283529160200191610264565b820191906000526020600020905b81548152906001019060200180831161024757829003601f168201915b5050505050815260200160038201805461027d90610776565b80601f01602080910402602001604051908101604052809291908181526020018280546102a990610776565b80156102f65780601f106102cb576101008083540402835291602001916102f6565b820191906000526020600020905b8154815290600101906020018083116102d957829003601f168201915b5050505050815260200160048201805461030f90610776565b80601f016020809104026020016040519081016040528092919081815260200182805461033b90610776565b80156103885780601f1061035d57610100808354040283529160200191610388565b820191906000526020600020905b81548152906001019060200180831161036b57829003601f168201915b5050505050815250509050919050565b600180549060006103a8836107b0565b90915550506040805160a0810182528681526020808201879052818301869052606082018590526080820184905260015460009081528082529290922081518051929391926103fa9284920190610495565b5060208281015160018301556040830151805161041d9260028501920190610495565b5060608201518051610439916003840191602090910190610495565b5060808201518051610455916004840191602090910190610495565b50506001546040519081527fbe5d398e1f60a26f14ee5d56c44adcb6e833f644dfbe3dd0927d59fadbf8b233915060200160405180910390a15050505050565b8280546104a190610776565b90600052602060002090601f0160209004810192826104c35760008555610509565b82601f106104dc57805160ff1916838001178555610509565b82800160010185558215610509579182015b828111156105095782518255916020019190600101906104ee565b50610515929150610519565b5090565b5b80821115610515576000815560010161051a565b60006020828403121561054057600080fd5b5035919050565b6000815180845260005b8181101561056d57602081850181015186830182015201610551565b8181111561057f576000602083870101525b50601f01601f19169290920160200192915050565b602081526000825160a060208401526105b060c0840182610547565b9050602084015160408401526040840151601f19808584030160608601526105d88383610547565b925060608601519150808584030160808601526105f58383610547565b925060808601519150808584030160a0860152506106138282610547565b95945050505050565b634e487b7160e01b600052604160045260246000fd5b600082601f83011261064357600080fd5b813567ffffffffffffffff8082111561065e5761065e61061c565b604051601f8301601f19908116603f011681019082821181831017156106865761068661061c565b8160405283815286602085880101111561069f57600080fd5b836020870160208301376000602085830101528094505050505092915050565b600080600080600060a086880312156106d757600080fd5b853567ffffffffffffffff808211156106ef57600080fd5b6106fb89838a01610632565b965060208801359550604088013591508082111561071857600080fd5b61072489838a01610632565b9450606088013591508082111561073a57600080fd5b61074689838a01610632565b9350608088013591508082111561075c57600080fd5b5061076988828901610632565b9150509295509295909350565b600181811c9082168061078a57607f821691505b6020821081036107aa57634e487b7160e01b600052602260045260246000fd5b50919050565b6000600182016107d057634e487b7160e01b600052601160045260246000fd5b506001019056fea2646970667358221220e2b1ebb88d4095c365bc2ea027f8013e583c62723d8d5e787ce384e47fc76e9764736f6c634300080d0033",
  "immutableReferences": {},
  "source": "// SPDX-License-Identifier: MIT\npragma solidity ^0.8.0;\n\ncontract TransactionContract {\n    struct Transaction {\n        string transactionType;\n        uint256 amount;\n        string recipientAccountNumber;\n        string timestamp;\n        string senderId;\n    }\n\n    mapping(uint256 => Transaction) transactions;\n    uint256 public transactionCount;\n\n    event TransactionAdded(uint256 transactionId);\n\n    function addTransaction(\n        string memory _transactionType,\n        uint256 _amount,\n        string memory _recipientAccountNumber,\n        string memory _timestamp,\n        string memory _senderId\n    ) public {\n        transactionCount++;\n        transactions[transactionCount] = Transaction({\n            transactionType: _transactionType,\n            amount: _amount,\n            recipientAccountNumber: _recipientAccountNumber,\n            timestamp: _timestamp,\n            senderId: _senderId\n        });\n        emit TransactionAdded(transactionCount);\n    }\n\n    function getTransactionDetails(uint256 _transactionId) public view returns (Transaction memory) {\n        require(_transactionId > 0 && _transactionId <= transactionCount, \"Invalid transactionId\");\n        return transactions[_transactionId];\n    }\n}\n",
  "sourcePath": "C:\\securebank\\contract\\contracts\\TransactionContract.sol",
  "compiler": {
    "name": "solc",
    "version": "0.8.13+commit.abaa5c0e.Emscripten.clang"
  },
  "schemaVersion": "3.4.16",
  "updatedAt": "2024-03-24T09:07:47.498Z",
  "networkType": "ethereum",
  "devdoc": {
    "kind": "dev",
    "methods": {},
    "version": 1
  },
  "userdoc": {
    "kind": "user",
    "methods": {},
    "version": 1
  }
}